S01000006674652D626173652E737265630D
S1130000F8FF002011040000A1D00000A1D00000DE
S1130010A1D00000A1D00000A1D00000A1D0000018
S1130020A1D00000A1D00000A1D00000A1D0000008
S1130030A1D00000A1D00000A1D00000A1D00000F8
S1130040A1D00000A1D00000A1D00000A1D00000E8
S1130400FFFFFFFFFFFFFFFFFFFFFFFFFEFFFFFFF9
S11304104FF000004FF000014FF000024FF00003D6
S11304204FF000044FF000054FF000064FF00007B6
S11304304FF000084FF000094FF0000A4FF0000B96
S11304404FF0000C62B60CF0B9FEFEE710B5DFF811
S1130450B01A022002F04BFADFF8A84AA06500287F
S113046002D14FF0FF3010BDDFF89C1A052002F0D6
S11304703EFAE065002807D1A06D02F051FA002091
S1130480A0654FF0FF3010BD002010BD10B502F084
S1130490C6FADFF8704A09E0406990F8921041F01A
S11304A0010180F89210606902F044F86069002844
S11304B0F2D1A06D02F034FAE06D02F031FA0020BE
S11304C0A065E065BDE8104002F0AEBAF8B5074695
S11304D00C4615461E460698002801D002F03FFC43
S11304E0706980B2009006232A462146304602F005
S11304F0C7FE00282DD107F11001284603F06DFA3C
S1130500002803D105F0F000E0280AD123462A464A
S11305103146002001F091FF304602F020FC00201B
S1130520F2BD07F11001204603F057FA002810D15C
S113053004F0F000E0280CD0F068007B0009810092
S11305407069884205D30022304602F01BFC070084
S113055004D1304602F003FC0020F2BDF868438861
S113056002882946204602F0A7F8002814D0017B0F
S1130570032904D10465F9680988A0F854100021FE
S113058079602B462246394600F0C0FC012810D180
S1130590384602F0E4FB0CE0F868407B400705D4E1
S11305A023462A463946002001F047FF384602F028
S11305B0D6FB0020F2BD000010B50446080018D098
S11305C0017801F00F0100EB81010B884A88C168B2
S11305D0006902F071F800280BD04169092C08D891
S11305E0DFE804F005080C14140C0C070710088E3F
S11305F0C86310BD0821C0F8801010BD1821C0F8D0
S1130600801010BD0921C0F8801010BD1221C0F85F
S11306108010BDE8104002F0D0B838B504469420EC
S113062002F07BFD050009D10321204603F0FAF90D
S1130630032003F0B2FF4FF0FF3032BD94220021BB
S113064004F065F8656104F164000021018106216C
S113065041604FF46151C1609621016108214161FB
S113066002210162402184F864100021417004F1E8
S113067014004FF4006101630162002032BDF8B53B
S1130680044604F10C05AE68207B00280AD106F16B
S11306907C00817D41F001018175204602F08DF8D6
S11306A00020F2BD04F13C0797F84800000711D57B
S11306B0F86C00280ED102F0B2F906F17C00817DBD
S11306C041F001018175204601F034FF02F0ACF9DC
S11306D00020F2BD02F0A3F9207B02280CD006F121
S11306E07C00817D41F001018175204601F022FFEB
S11306F002F09AF90020F2BD387C002805D10120CF
S113070038740146204601F020F902F08DF902F018
S113071086F906F17C00817D41F001018175217B20
S1130720002903D1204602F048F81DE0007D0A2884
S113073013D097F8480000070AD5F86C002807D0B2
S1130740642148434FF4FA7190FBF1F0F06701E043
S11307503020F067012084F83C00686A002803D048
S113076004F1300003F0FAFD02F05EF90020F2BD5E
S11307702DE9F04784B0044688469146404602F08D
S1130780B1FD002809D11021204603F04BF91020B7
S113079003F003FF4FF0FF305FE000F1100140462B
S11307A003F01BF9002803D108F0F000E02809D178
S11307B00F21204603F036F90F2003F0EEFE4FF030
S11307C0FF304AE004F10C0ADAF80850204600F041
S11307D051FB00AA01A9204601F034FFDFF8246789
S11307E0706D05F108073862401CA860386A401E25
S11307F07864CAF84480A4F8549002F010F99DF883
S1130800003001AA0221204601F06AFC8046B8F1BA
S1130810000F0BD04146204603F004F9404603F094
S1130820BCFE02F001F94FF0FF3016E0012085F81C
S113083090002073706D00F57A407065386DB8676C
S11308401E20786702F0F0F80421204603F0EAF84D
S1130850042003F0A2FE4FF0FF3004B0BDE8F0879F
S113086010B50446206A002801D1002010BD02F012
S1130870D6F8246A00E0044620680028FBD1E06A28
S1130880416A491E41622146E06A203003F0E5F8DE
S113089002F0CAF80020E062204610BD2DE9F843BA
S11308A004460F46154604F10C08D8F8086094F87D
S11308B03C00002809D01521204603F0B3F8152088
S11308C003F06BFE4FF0FF30A2E0581000F001007F
S11308D080F00109D80737D504F13C0090F84800AE
S11308E0C00609D50621204603F09CF8062003F033
S11308F054FE4FF0FF308BE096F89200800714D539
S113090002F08DF8B9F1000F08D04FF0FF303062DB
S113091096F8920000F0FD0086F8920096F8240004
S1130920387002F081F8012072E0207B022809D09F
S11309301421204603F076F8142003F02EFE4FF025
S1130940FF3065E0002063E002F069F8306A0128B6
S113095009DB854207DB0546B9F1000F08D04FF0EB
S1130960FF30306204E0D8F82400A84200D20546E3
S11309704B462A46394604F1300003F05DFD054636
S1130980B9F1000F15D0306D28183065318AB0EBFD
S1130990410F08D23168B0EB510F04D271690029BC
S11309A007D1002805D0207B022802D1204601F07F
S11309B001FD002D0CD1207B022809D014212046F2
S11309C003F030F8142003F0E8FD4FF0FF351CE08D
S11309D00898002803D004F13C0149690160099892
S11309E0002803D004F13C01098B0180002D0CD1B7
S11309F096F89200000708D51A21204603F012F851
S1130A001A2003F0CAFD4FF0FF3502F00DF8284616
S1130A10BDE8F2832DE9F24F82B006469A4606F10C
S1130A200C07D7F80880144600200090814696F8F9
S1130A304C00002809D01521304602F0F3FF1520A0
S1130A4003F0ABFD4FF0FF30ACE0DFF8680B8442FD
S1130A5009DB0621304602F0E5FF062003F09DFD88
S1130A604FF0FF309EE0307B022809D0142130463D
S1130A7002F0D8FF142003F090FD4FF0FF3091E016
S1130A80002C01D148468DE001F0C9FFB86B796BA9
S1130A90451A02F039FB40F21A41884201D24D4610
S1130AA002E0A84200D20546A54204DA012D13DB78
S1130AB02C462AF0010A5FEACA7019D5D8F8040056
S1130AC008F1040BDBF8482000F1005101F0BFFEEF
S1130AD0002805D0641E0BD101F0A6FF484661E052
S1130AE0D8F80400796B08182018401ECBF8480089
S1130AF05FEA4A7009D506F14C00816B4A0704D4B9
S1130B004FF0010941F004018163012D2BDB08F151
S1130B10840A9AF80E0040F080008AF80E00A5427C
S1130B2000DD2546012300222946029802F0B7F889
S1130B30040018D00095214606F1400003F02CFC77
S1130B4000284CD108F1040BDBF8300000282BD12D
S1130B50D8F8840010F1010F05D1DBF85400CBF86C
S1130B606000C8F88400D8F80400796B081808F10C
S1130B70040BDBF8482000F1005101F068FE002866
S1130B8004D0D8F80400401ECBF84800B9F1000F97
S1130B9005D006F14C00816B21F00401816301F062
S1130BA043FF0098BDE8FE8F307B02280CD1012161
S1130BB0304600F0CAFE0028F6D19AF80E0000F084
S1130BC07F008AF80E00CEE706F1400003F0C6FB72
S1130BD09AF80E0000F07F008AF80E00C3E7204662
S1130BE002F0A9F801F020FF0020DBE738B5044645
S1130BF00D4601F014FF207B02280BD0142120465F
S1130C0002F010FF142003F0C8FC01F00DFF4FF0B8
S1130C10FF3032BDA80709D504F13C00017C00294E
S1130C2004D101210174204600F08FFEE8070AD5A3
S1130C3094F83C00002806D104F1300003F08EFB48
S1130C40012084F83C0001F0EFFE002032BD10B515
S1130C5082B0049C062956D1114601290AD00229E2
S1130C601DD004291BD0202919D0402917D0802950
S1130C7015D017E0022C2ED101290AD0022937D031
S1130C80042935D0202923D040291AD0802912D014
S1130C9037E0198800291ED06830818031E0042CA7
S1130CA019D1E9E7092102F0BDFE092003F075FC22
S1130CB04FF0FF3016BD196800290CD0683001616F
S1130CC01FE01968002906D068304900C16018E0A7
S1130CD01968002908D1062102F0A4FE062003F0B9
S1130CE05CFC4FF0FF3016BD68304900816008E0BD
S1130CF0816E1B68002B02D01143816601E0914391
S1130D008166002016BD009402F095FD16BD38B52D
S1130D104569049C06295BD1114601290ED002299C
S1130D202ED004292CD0082935D010293DD02029D3
S1130D301CD0402910D0802907D040E0B0F86C00C6
S1130D40188002202060002032BD6C30C06818601A
S1130D5004202060002032BD6C30806800EBD0702D
S1130D604010186004202060002032BD6C304068C0
S1130D7000EBD0704010186004202060002032BDC9
S1130D80806E1040401E8041C043C00F1860042094
S1130D902060002032BD95F8920000F00800411E4A
S1130DA08941C943C90F1960F1E795F8920000F031
S1130DB00200411E8941C943C90F1960E7E70921AF
S1130DC002F030FE092003F0E8FB4FF0FF3032BDA3
S1130DD0009402F061FD32BDF8B506460C4606F1FA
S1130DE00C05AF68307B032817D101F018FE02E030
S1130DF0E86801F09FFB2869A96909188C4201DAA7
S1130E000028F5D1A869844203DA686901F092FBED
S1130E10F8E7EC6101F008FE0BE0304600F02AF838
S1130E2000206864A6F85400EC61032087F8900061
S1130E3030730020F2BD38B501F0F1FD314844694A
S1130E4002E0284601F0B9FC002C0FD06069254669
S1130E50246890F89200C007F3D4287B0328F3D1C8
S1130E60A8690028F0D001F065FBF9E7BDE831403E
S1130E7001F0DABD38B5044665699422002128469C
S1130E8003F045FC4FF406702886B4F86C00288201
S1130E9004F11400016A2960DFF81827914202D393
S1130EA0DFF8F019296029682A8A914203D229823D
S1130EB001E0491C2976297E4FF480528A402B6830
S1130EC09A42F6D34FF0FF31C5F88010E96769679D
S1130ED0C5F88C10C5F88410A967C5F888100C22D1
S1130EE0EA65AA652962DFF8AC196964C06900285B
S1130EF005D004F13000BDE8324003F02FBA31BD13
S1130F00BF1C0000BC08FF1F751C00002DE9F24F38
S1130F1084B0044615461E4604F10C0087684FF061
S1130F200108002000900498C068417B01F03F094B
S1130F3097F89010012900F0CF8014D3032900F012
S1130F40CB8010D207F19001497801290BD1494691
S1130F50890708D5406803F0E6FA391D896A491EF5
S1130F60884200F0B9800498C068406803F0DBFA56
S1130F7083460498C068406803F0D5FA07F1040A70
S1130F80DAF828200BF10051401C01F060FC002825
S1130F9054D00498C068406803F0C5FADAF82830E1
S1130FA00499496908180499C968097B0909A0EBDF
S1130FB0810203F10051581C01F049FC00284FD074
S1130FC00498C068406803F0AEFADAF8281001F01B
S1130FD04BFC834600235A460498C068007B0009F2
S1130FE0810004A801F093FF484680061BD50498AD
S1130FF0C068408A03F092FAB0EB0B000DD4049859
S1131000C068408A03F08AFAA0EB0B0080B203F0B8
S113101085FA0499C968488205E009F0DF09049853
S1131020C06880F80D90DAF8280003F07CFA04997F
S1131030C9684860009840F0020000900498C068B5
S1131040406803F070FA0246DAF82800DAF8101063
S1131050081800F10051401C01F0F9FB002804D0ED
S1131060204601F0A7F94046A1E20498C068406810
S113107003F059FADAF82810DAF810205318049912
S1131080496908180499C968097B0909A0EB810218
S113109003F10051581C01F0DAFB00281CD004981D
S11310A0C068406803F03FFA049949690818049934
S11310B0C968097B0909A0EB8101DAF82800DAF88C
S11310C01020101801F0D0FB414204A801F0C2FE28
S11310D0009840F00200009097F8900009F0140185
S11310E0142913D1012840F033820498C068806821
S11310F003F019FA391D496A884203D104F13C000E
S113110012214164204601F058FB21E24946490777
S11311100ED5012800F01C82032800F0198204F186
S11311203C0012214164204601F047FB40463EE268
S113113019F0020B35D0012816D0C0F0F080032836
S113114012D080F0EC8007F190004078012840F044
S1131150E6800498C068406803F0E5F9391D896A9F
S1131160491E884240F0DB8097F890004946C90642
S11311704AD5401E012802D9801E09D021E00498D6
S1131180C068806803F0CFF9391D496A884247D0A6
S11311902B463246049904F1600001F04EF94046B2
S11311A005E2012801D00328DED15FEAC96040F1DD
S11311B0CF812B463246049904F1600001F03DF9D9
S11311C0C6E10498C068806803F0ADF907F1040A29
S11311D00246DAF80410786801F039FB00281FD1C0
S11311E00498C068806803F09EF9DAF80430024677
S11311F003F10051581C01F02AFB002800F0A881DB
S1131200204601F0D7F8A3E1012809D0C0F0A0815D
S1131210032805D080F09C81204601F0CBF897E1AB
S11312200498C068C08907F1040ABBF1000F04D018
S113123003F074F9CAF8300006E003F06FF997F987
S113124048108840CAF83000DAF83400DAF8301070
S1131250884200D20846CAF8340097F89000401E2D
S1131260092800F29681DFE810F00A001D017800D9
S11312704D0154014D014D01750167018D01049823
S1131280C068406803F04FF9401CCAF828005FEAC0
S1131290C96033D50498C068806803F044F9786065
S11312A00498C068406803F03EF9CAF8180004992D
S11312B0204601F08AF9204601F0EDF9BAF82C0035
S11312C000282CD007F148094FF0FF30C9F8380046
S11312D0C9F83400204601F06DF8042087F8900026
S11312E00220207304F13C0090F84800800740F18C
S11312F050814FF46150C9F830004AE107F14809C0
S1131300D9F81000C9F838000499204601F05DF9B5
S1131310204601F0C0F9BAF82C0000280BD12B4666
S11313203246049904F1600001F087F8204601F088
S113133044FA40463BE10498C068406803F0F3F87F
S1131340CAF81800022087F8900007F1900041467F
S11313504170204601F02EF81BE104F13C0B04F12E
S11313600C00006904F10C018969081804F10C01EE
S1131370C969884209DB0020CBF81400ABF81800D7
S1131380CAF83000CAF8340003E1204602F04CFCED
S113139007460020CBF81400ABF81800002F04D146
S11313A0CAF83000CAF83400F3E0BE65942001F0B6
S11313B0B4FE8146B9F1000F08D1384601F0A8FE09
S11313C00020CAF83000CAF83400E2E0C7F81490EC
S11313D03846FFF74FFD09F1080BDAF83000CBF877
S11313E02C00DAF83400CBF830000020CAF83000C2
S11313F0CAF834003946204601F0C3F90498C0689D
S1131400406803F090F8401CCBF82400DFF8E0A813
S1131410DAF85400CBF82000401CC9F80800DBF8C7
S11314202000CBF844000498C068406803F07BF8BF
S1131430CBF8140040463873032089F89100022049
S113144089F890000499384601F0BFF8384601F055
S113145022F9BBF8280000280AD12B463246049909
S113146004F1600000F0E9FF384601F0A6F990E0CD
S113147001AA02A9384601F0E5F89DF8043002AA51
S11314801221384600F02CFEDAF8540000F57A40B8
S1131490CAF854001E20CBF87400DBF85000CBF8D7
S11314A0780076E0042087F890000220207307F18A
S11314B048094FF0FF30C9F83400C9F838000498DF
S11314C0C068806803F02FF8786007F190004078D6
S11314D0032809D1204601F05BF900AA04992046AB
S11314E000F06AF8804654E0BBF1000F0AD004F122
S11314F03C0B9BF8480080074BD5DBF83400C9F857
S1131500300046E000AA0499204600F055F88046D1
S11315103FE000AA0499204600F04EF88046DAF82D
S113152024007968884234D197F89000052830D196
S1131530062087F890002CE00498C068806802F0C8
S1131540F2FFDAF82410884202D1204601F035F97E
S113155040462CE00498C068806802F0E4FFDAF8A2
S11315602410884215D10A2087F8900007F1480911
S11315703020C9F834004FF0FF30C9F83800C9F8FA
S1131580300006E02B463246049904F1600000F076
S113159054FF94F83C00002808D004F10C00406A81
S11315A0002803D004F1300002F0D8FE404605B014
S11315B0BDE8F08F0100FF0F2DE9F84F04468A467D
S11315C0154666690120009006F1540704F11408D9
S11315D098F87000800703D5D8F85C00786202E0C0
S11315E04FF0FF3078624FF0FF303862D6F804B025
S11315F006F10409DAF80C00806802F094FF8345D0
S113160047D1D9F82400584500F0E080D8F82C00E0
S1131610002800F0DB8096F85400401C86F8540043
S1131620C0B2032840F0D280401C86F85400D9F898
S11316303800D9F83010814203D24808C9F8400074
S113164002E04008C9F84000B9F82C004000D9F87D
S11316504010814201D2C9F84000D9F84000C9F8CD
S11316603800D9F824B07068C9F82400B9F82C30CF
S113167000221146204600F0C2FDC9F824B02868B3
S113168040F0010028604FF0FF30B8630220387743
S11316909CE0002086F85400DAF80C00806802F020
S11316A042FF0146706801F0DFF88346D8F82C0049
S11316B0584500D28346D9F83800764988422CD25E
S11316C0D9F84010814205D2D9F83C005844C9F8F1
S11316D03C0011E00BEB000291420BD2D9F83C2004
S11316E080185844401AC9F83C00D9F84000C9F899
S11316F0380001E0C9F83820D9F83800D9F83C108E
S113170081420AD3081AC9F83C00D9F83800B9F85C
S11317102C1010FA81F0C9F83800594604F1480039
S113172001F098FBD8F82C00A0EB0B00C8F82C00B3
S1131730DAF80C00806802F0F6FE02467260D9F80E
S1131740240000F10051401C01F081F8002802D06F
S11317507068C9F82400D9F80800726800F10051D3
S113176001F075F8002831D0387F01282ED1B86BEC
S1131770398B002918D0B0EBD1004118398389B2D4
S1131780002901D101213983014609B2002900D57C
S11317904042798B4018A0EB9100788380B20028F6
S11317A009D10120788306E0401CC0003883B86B5F
S11317B0401C4000788300203877388BC008798B30
S11317C011FA80F078604FF0FF30B86396F8920019
S11317D0000709D42A465146204600F05DF8002847
S11317E00FD0002000900CE0DAF81400DAF80C10A6
S11317F0097B0909B0EB810003D0286840F002009E
S113180028602878000702D5204600F0D3FD96F81A
S1131810920000F08001204600F097F8002803D0E1
S1131820286840F001002860D9F8300000280CD165
S1131830D8F82C00002808D0386B10F1010F01D122
S1131840786838613869386306E096F89200400693
S113185002D44FF0FF3038637068D9F824108842FE
S113186003D14FF0FF30F86201E07868F86228682D
S113187010F0090F0AD1810704D5204600F09AFD23
S1131880009804E0400701D5012078630098BDE882
S1131890F28F00000000FF0FF2B50446154666699A
S11318A00846C0684969027B1209B1EB820103D181
S11318B0417B2122114246D0F76A406802F033FE90
S11318C0B84240D10098C068407B800606D52B46BC
S11318D0002200A9204600F00BF901E0781EF06117
S11318E00098C068417BC9070DD5806802F01BFED3
S11318F00146204600F07FF9F06A401CF062286837
S113190040F0080028600098C068007B000981004E
S113191000A801F09FFA0098002812D0F06A0099FC
S113192049690818F0620099A06B01F09BFBA06361
S1131930206B0099496908182063286840F0040066
S113194028600120F2BD0020F2BD2DE9F84F0646C3
S11319500F46D6F81480002598F8920000F0BF00D6
S113196088F8920008F10404616AD8F8040000F0D1
S11319707BFF8246206BB0EB0A0007D5022188F872
S11319807010616A4118616282442846316CA1EB8F
S11319900A09A18DA26BA2EB0A02B2FBF1F2514338
S11319A0814200D20846CB46814500DD8346BBF127
S11319B0010F1FDA96F84C00002800F09680B9F168
S11319C0000F40F0928098F89200400700F18D805B
S11319D02B461A461121304600F082FB08F1700BA9
S11319E0DBF8100010F1010F02D1606DCBF810008C
S11319F001257AE0AA46BBF1010F48DBA38D9B4584
S1131A000ADB2A461146304600F0F9FBA08DABEB09
S1131A10000B1AFA80FA38E0606B4008584518D376
S1131A2098F89200C00614D4606AA26C00F10051C8
S1131A3000F00DFF00280CD1D8F80400616A884238
S1131A4003D096F8680040071ED50BEB0A00484502
S1131A5007D15B462A461146304600F0D0FBDA44F3
S1131A6012E0606D08F1700BDBF8141011F1010F36
S1131A7001D0884202DA2066CBF8140098F892006C
S1131A8040F0400088F89200AB46002FB3D0BAF182
S1131A90000F1DD098F8700008F1700B00280AD0D0
S1131AA0022810D1A068626A00F10051401C00F0C5
S1131AB0CEFE002807D0606AA0602846CBF81C0040
S1131AC0012088F8700001254FF0FF30CBF8140096
S1131AD0BAF1000F09D008F1700BDBF8100010F117
S1131AE0010F02D1606DCBF810002846BDE8F28FDB
S1131AF02DE9F04781460C4692461D46D9F81460FC
S1131B002768F868408A02F009FD804609F1140943
S1131B1099F85400800706D5B8F1000F69D0A8F1F0
S1131B2001081FFA88F8D04563D3F868BAF1000FAA
S1131B3006D07969027B1209A1EB82018A4558D249
S1131B40406802F0F0FCF968D1F804A0F36908EBEE
S1131B50000203F10051581C00F079FE002805D062
S1131B60504602F0E0FC4044F06108E0D6F81C80E6
S1131B70504602F0D8FCA8EB00081FFA88F87869F0
S1131B80F968097B0909A0EB8100804531D206F18F
S1131B901C00D9F81C104144416099F87010C90622
S1131BA027D4F968097B090908EB810189B202E0AD
S1131BB0891A89B23F683A699142F9D296F892201B
S1131BC042F0020286F89220FA68895C0172016987
S1131BD0491C0161002301222068C068007B0009C0
S1131BE008EB8001204601F092F9286840F00200D9
S1131BF02860BDE8F087406990F89020042A04D05A
S1131C000BD3062A11D009D37047072180F890100E
S1131C109030817841F0080181707047826A914266
S1131C2003D0082180F89010F2E70A2180F8901080
S1131C3000F128014A6D012A01DA30224A654FF089
S1131C40FF320A65E4E710B4426951691368006B16
S1131C50181A00D50020814208D2441A128A9442EC
S1131C6004D2B4EB530F01D2002900D10146084637
S1131C7010BC704770B500F0D2FE1D4C6569002D94
S1131C8009E0066800F036F83000FAD12E682846DC
S1131C9000F030F835000AD0A869002803E006688F
S1131CA000F028F83000FAD1286A0028EDE7606DCA
S1131CB000F57A406065BDE8704000F0B5BE38B507
S1131CC000F0ADFE0A48446906E0284600F084F8B6
S1131CD02D68002DF9D12468002C04D0204600F092
S1131CE07BF8256AF5E7BDE8314000F09DBE0000B1
S1131CF0BC08FF1F38B504466069217B00296AD0FF
S1131D00416F11F1010F11D0491E41670ED14FF0FF
S1131D10FF314167D4F88000182802D01120C4F89C
S1131D2080002046BDE8324000F047BD00F1740554
S1131D30A86810F1010F21D0401EA8601ED14FF0F9
S1131D40FF30A860A87FC0070AD5287F0A2820464C
S1131D5003D1BDE8324000F030BDBDE83240E9E3D4
S1131D60D4F88000182804D0092802D01720C4F819
S1131D7080002046BDE8324000F01FBDE86810F145
S1131D80010F08D0401EE86005D14FF0FF30E86035
S1131D90204600F034F8686810F1010F08D0401EA6
S1131DA0686005D14FF0FF306860204600F09BF872
S1131DB0286910F1010F08D0401E286105D14FF0A9
S1131DC0FF302861204600F0CCF8A86910F1010F1B
S1131DD001D0401CA86131BD4169027B002A0DD0AD
S1131DE0D1F8882012F1010F08D0521EC1F88820C2
S1131DF004D14FF0FF32C1F88820DBE27047FEB512
S1131E0006467469251D94F89000012811D0022813
S1131E101FD1686A401E686200AA01A9304600F01A
S1131E2011FC9DF8003001AA1221304600F058F947
S1131E3042E0686A401E686200AA01A9304600F0C8
S1131E4001FC9DF8003001AA0221304600F048F957
S1131E5032E004F19007B87800F0FB00B87004F1A8
S1131E607000416811F1010F01D1302141606168B6
S1131E706962A96B2A6B8A4202D25108296401E083
S1131E8049082964A98D49002A6C8A4200D2296430
S1131E90A98DA9634FF0FF31C161022084F870005D
S1131EA0B87840F01000B87000213046FFF74DFDBF
S1131EB0B87800F0EF00B870686E6168884203D0AB
S1131EC0686DA86560686866A86D782806D04000CB
S1131ED0792802DB7820A86500E0A86504F1700089
S1131EE0A96D0161F7BDF0B58BB007467C6900228E
S1131EF01146012000F0D6FD050030D03846FFF72A
S1131F00A2FE217EC84007F16001009107F154064A
S1131F107168019101A93A6D4A6032890A81B7F862
S1131F2054204A816268521ECA60E26A0A61102221
S1131F300A75C88200200883C8618DF824000A95B8
S1131F4000A800F040F8306AA067706A316A48431C
S1131F50616F11F1010F01D0884200DA60670BB0A4
S1131F60F0BD38B5446904F12805E968002910D1A9
S1131F7001230022114600F042F9A06A401EA0622B
S1131F80E86B782816D04000792812DB7820E863C3
S1131F9010E094F8921041F0100184F8921000219E
S1131FA0FFF7D3FC94F8920000F0EF0084F892005D
S1131FB031BDE863E86BE865E86C10F1010F01D10D
S1131FC03020E86431BD70B586B00446002201219A
S1131FD0142000F067FD050006D1A06A002801D096
S1131FE000F0BDFE032079E014220021E86802F02D
S1131FF08EFB226A002A13D094F8241000290FD0F3
S1132000284600F0AEFA0646F6B2002E0BD028465B
S113201000F0A5FEA06A00285FD000F0A0FE5CE0FE
S1132020E86850210173E868A1890180E868E189C2
S11320304180206902F077FAE9684860606902F03B
S113204072FAE9688860E868217E4173608B02F067
S113205065FAE968C881A16A284601F003F80546D3
S1132060A08B02F05BFAE9684882686980B200904C
S11320700623A2686168284601F002F9E96808822B
S1132080206800281AD090F8241001F004010129D6
S113209001DB012100E00021059101680491002188
S11320A00391029501790191407900900623A26879
S11320B06168002001F02BF906460EE0002005902F
S11320C00490039002954020019000200090062384
S11320D0A268616801F01BF90646304606B070BD7F
S11320E02DE9FC4F8BB005460E464FF0000BDA4647
S11320F06F6907F10808D8F82090FFF7A4FDC8F825
S11321000C00B10709D509F10109B0F5805F02D9C6
S11321104FF4805405E0044603E098F8101020FAC8
S113212001F4F00711D509F1010907F18800017ADA
S1132130042902D10521017203E0072901D10921F3
S11321400172817A41F004018172B00616D5D8F883
S11321504410D8F8200000F087FBB0F5805F0DD262
S1132160D8F84410D8F8200000F07EFB824605F130
S11321705400007D800701D50AF1010AF00601D55B
S1132180D8F824B005F16000009005F154014868C6
S1132190019001A82A6D426009890181B5F85410A3
S11321A04181D8F82010C160C0F810B00675C4820F
S11321B0A0F818A00B99C1619DF830008DF8240097
S11321C000200A9000A8FFF7FEFE04464FF0FF30FF
S11321D0C7F888000020C8F84800C8F82090B868FC
S11321E04A4600F10051401C00F031FB002802D0A7
S11321F0D8F82000B86020460DB0BDE8F08F2DE976
S1132200F74F8EB0994600252E46476907F104081A
S1132210D8F824100C4614300290D0F82CA078681A
S113222000F022FBAAEB00000190484500D2814651
S11322300E984C300090406801F0E1FB09F1140164
S1132240884201D2A0F114094FF0100A01984845C0
S113225004D1B9F1000F01D04FF0180AD8F848B0F2
S1132260D8F824005A4600F1005100F0F0FA002892
S113227017D05946D8F8240000F0F6FA4FF6FF714B
S113228088421CD2D8F84810D8F8240000F0ECFAA0
S113229005464AF0200A0098007F80070FD56D1C80
S11322A00DE07868421E0BF100510BF1010000F0C3
S11322B0CEFA002803D07868401EC8F848000E986B
S11322C090F84C00002815D00198484512D14AF0E6
S11322D0010A641C07F18800017A042902D105214E
S11322E0017203E0072901D109210172817A41F0C9
S11322F0040181720E98FFF7A6FCC8F81000B9F12A
S1132300000F11D033464A460298C06A0199411A17
S11323100298406B00F004FC060005D109EB0400B0
S1132320C8F82400032042E00E986030039000981F
S1132330C068049004A80099496841600099098A1A
S11323400181009909894181D8F82410C160D8F825
S11323502810016180F814A0D8F8101098F81420FF
S1132360D140C18205830F99C1619DF840008DF869
S113237030000D9603A8FFF726FE05464FF0FF3008
S1132380C7F888000020C8F84C0009EB0402C8F81C
S11323902420D8F8040000F10051401C00F057FA42
S11323A0002803D0D8F82400C8F80400284611B047
S11323B0BDE8F08F3EB50446656995F890000228A3
S11323C004D0052812D0092810D019E0A86A401EAC
S11323D0A86200AA01A9204600F034F99DF8003053
S11323E001AA12212046FFF77BFE20E0A86A401EC6
S11323F0A86200231A4611212046FFF771FE16E059
S1132400A86A05F128014A6A00F1005100F01FFA98
S1132410002806D000231A4630212046FFF760FE2C
S113242005E000231A4610212046FFF759FE05F166
S113243028004FF0FF31016637BD2DE9F0418CB023
S113244080460C4615461E46E06801AF417BC9062E
S113245008D5806802F067F8F8600020386104202D
S1132460387517E00020F860E068406802F05BF817
S1132470E268517B63691818127B1209A0EB820091
S113248001F001021018C1F3400150FA81F03861E3
S113249014203875CDF8008001957E60E06840888E
S11324A03881E068008878810020F8823883F861F8
S11324B08DF824000A9000A8FFF785FD0CB0BDE854
S11324C0F08100F10C018B68027B002A00D1704777
S11324D010B58CB093F89040012C29D00A2C27D049
S11324E001AA022C06D10024D460DB6A13611423F0
S11324F0137505E05B68D36000231361042313752F
S113250000F16003009300F154035C680194496C8A
S1132510516019891181B0F8540050810020D08293
S11325201083D0618DF824000A9000A8FFF74BFDBA
S11325300CB010BD10B50446207B032808D02046FB
S1132540FFF7BFFF2046BDE8104036E1FFF7F2FF7A
S1132550A0690028FAD1206A0028F3D0FFF7EAFF27
S1132560F9E771B581B00C461646002203212820F4
S113257000F098FA050001D1032076BD282200213D
S1132580E86802F0C4F82946019800F06BFD019058
S11325900568002003E0E968825D4254401CA042C3
S11325A0F9DB0320044202D004F0FC00041DE4B271
S11325B0A4F1280101A800F04DFC28691430800022
S11325C00199C9680873002076BD70B50C0045698F
S11325D037D0142600E00646E068017B0909B6EB13
S11325E0810F2EDA32181378002B2AD0701C012B9D
S11325F0F1D0B0EB810F24DA507856FA80F0401E07
S1132600B0EB810F1DDA022B02D0032B05D012E0B0
S1132610508801F083FF28860DE0907805F13001A1
S113262008760D2801DB0C20087695F8920040F01E
S1132630200085F89200E0683018407856FA80F659
S1132640CAE770BD70B50C4615464669002129706D
S1132650318A002907D1006D00F044FE002802D021
S1132660406B28383082308A40F0017001F05BFF03
S1132670297808512878001D2870307E40F44030B5
S113268040F44070000201F04EFF29780851287888
S1132690C01C287070BD406990F89210890608D457
S11326A0002101760168B1F5805F02D94FF48051B1
S11326B00160018EC16370472DE9F84304460D465D
S11326C016461F464FF0000800F0A9F94D48D0F80F
S11326D014900BE0B8F1000F06D1D9F85800002887
S11326E001D0A84200D1C846D9F80090B9F1000F32
S11326F015D0B9F85C00B842F6D199F80C0003285B
S1132700E8D0D9F85810A942EED10028ECD0D9F875
S11327105000A042E8D1B9F85400B042E4D1B9F174
S1132720000F29D1B8F1000F26D0D8F8189001E095
S1132730D9F80090B9F1000F07D0D9F85000A042A1
S1132740F6D1B9F85400B042F2D1B9F1000F0FD16B
S1132750D8F8209001E0D9F80090B9F1000F07D023
S1132760D9F85000A042F6D1B9F85400B042F2D1E1
S1132770B9F1000F00D1C14600F056F94846BDE852
S1132780F283C269521CC261C862183001F054B9A4
S113279038B50446E56AE869401EE861686A401C89
S11327A06862214605F1180001F057F9214605F148
S11327B02000BDE8344001F03FB938B5044604F1C7
S11327C00C05286A002809D0207B0128204602D164
S11327D0BDE832401AE0BDE832401FE0A86890F836
S11327E09200C00704D521460748BDE8344022E0E2
S11327F004F1400001F0B2FD002020736864A4F8E5
S1132800540031BDBC08FF1FD008FF1FC16ACA694C
S1132810521ECA610146C06A18300CE0C16A4A6A95
S1132820521E4A620146C06A203004E0002801D0EA
S113283000F06EBC704738B504460D466869FFF772
S1132840F5FF29462046BDE8344001F04DB98142E8
S113285002D3824204D301E0824203D2914201D2E4
S113286000207047012070470A1A1046704750F83C
S1132870041B61B150F8042BD30744BFA9F1010331
S11328809A18002342F8043B091FFAD1EFE7704776
S1132890354900224A6002F06DB838B502F088F874
S11328A0314D03E0046800F033FC2C6028680028F4
S11328B0F8D131BD2C48406870472B484168491C09
S11328C04160704738B5284C25680DE06168686838
S11328D000F038F8A968884205D360686860E86841
S11328E0010000D080472D68002DEFD131BD38B5EF
S11328F004460D46012C01DB280001D1002032BD25
S1132900102000F00AFC002801D1002032BD164935
S11329100A6802600860002141608460C56032BDBD
S113292000280ED010490A68904203D112680A6048
S113293005E00A4611688142FBD10168116000F08C
S1132940E7BB70470A1A1046704738B50446064874
S11329504568FFF7AFFF01462846FFF7F3FFA042A3
S1132960F7D331BD000000002C5FFF1F38B54C4C7D
S1132970656800E02D68002D14D069688142F9D1A2
S1132980A868010000D080472068002802D00120F8
S1132990286131BD00202861E868010002D0BDE84B
S11329A03240004731BDF8B504460D461646194677
S11329B002F016F80746142000F0AFFB002801D1FE
S11329C00020F2BD44608560C66035494A680260F3
S11329D00022026148603846F2BD38B5044602F070
S11329E02FF82F4D686800E00068002802D0416885
S11329F0A142F9D1002811D000F08AFB686841682F
S1132A00A14203D10068686031BD0846016800290D
S1132A1004D04A68A242F8D10968016031BD204857
S1132A200168491C0160704738B51D4C20680128B5
S1132A300DD1656809E02869002805D000202861C7
S1132A40E868010000D080472D68002DF3D120688C
S1132A50401E206031BD70B50546114E7468FFF705
S1132A60DEFF00E02468002C12D06068A842F9D18F
S1132A70A068010000D080473068012806D10020FA
S1132A802061E068010003D0804701E0012020615B
S1132A90BDE87040C8E7024800210160416070470A
S1132AA0B05DFF1F2DE9F04104460E461746002C89
S1132AB001D5002032E01C2000F021FB050007D1E5
S1132AC0012F05D102F070F81C2000F018FB054618
S1132AD0002D01D1002021E004F10408404600F05B
S1132AE00EFB002806D1012F04D102F05DF8404608
S1132AF000F005FB002804D1284600F0FBFA002072
S1132B000CE00021296069602E760121697601605C
S1132B10A860001DE8602C616C612846BDE8F08166
S1132B202DE9F84F04460D4616464FF0000B5F465C
S1132B30A246DAF810008344DAF800A0BAF1000FD4
S1132B40F7D1ABEB050016F1010F01D1064603E006
S1132B50B04273DB002871D4002D6FD4A2461C2030
S1132B6000F0CDFA8046B8F1000F08D10098012892
S1132B7005D102F019F81C2000F0C1FA8046B8F122
S1132B80000F5BD0C1463846C8F80400607E88F860
S1132B901900C8F81460DAF81000854203D22F46F1
S1132BA008E0DAF800A0DAF81000C719BD42F8DA34
S1132BB02818C71BDAF80800C8F808009AF81800A3
S1132BC088F81800DAF80C003818C8F80C00D8F89F
S1132BD008000168491C0160DAF81000311A07EB9B
S1132BE0010BBBF1010F02DAC8F8106051E0C01B01
S1132BF0C8F810001C2000F082FAC8F80000002871
S1132C0009D10098012806D101F0CEFF1C2000F064
S1132C1076FAC8F80000D8F80000002810D1484619
S1132C2000F089F8814605E0D9F800A0484600F094
S1132C3061FAD146D8F800008145F5D100202CE096
S1132C4080460020C8F80400DAF800A0DAF808008A
S1132C50C8F808009AF8180088F818009AF81900BB
S1132C6088F81900D8F808000168491C0160DAF8EE
S1132C700C00C8F80C00DAF81000BBEB000B03D50D
S1132C805844C8F8100001E0C8F81000BBF1010F67
S1132C90B0DA0020C8F800004846BDE8F28F70B5ED
S1132CA004460D4611461A462846FFF7FBFE060069
S1132CB004D02A462146F06801F074FC304670BD09
S1132CC0F8B51C460026334605462F69BE192D6803
S1132CD0002DFAD1751A12F1010F05D12A460029E7
S1132CE028D4002A05D1F1BD954223DB002DF6D569
S1132CF0F1BD05462869814202D20B4606E02D68E3
S1132D002869C3189942FADA0818C31A16462869BA
S1132D10C11A8E4201D2374600E0C71AF61B3A4662
S1132D20E8681918204601F03DFC00233C192D6881
S1132D30012EECDAF1BD38B504000ED0A0680168AC
S1132D40012902D100F0D6F901E0491E016025688D
S1132D50204600F0CFF9284632BD002032BD38B5F8
S1132D60040005E0491E0160204600F0C3F92C0070
S1132D7007D02568A06801680129F3D100F0BAF9E9
S1132D80F2E731BD2DE9F84304460D469146D4F8E7
S1132D901080A8455CD2012D5ADB002C58D0264661
S1132DA002E0366830698044A84501D2002EF8D18B
S1132DB005F10408404600F0A2F9070008D1B9F172
S1132DC0010F05D101F0F0FE404600F098F90746E6
S1132DD0002F01D100203BE0012038602269E16826
S1132DE0381D01F0DFFBD4F81080A06801680129C8
S1132DF002D100F07FF901E0491E0160A760381D8F
S1132E00E06027680AE03A6901F0CCFBB74205D0DC
S1132E10386980443846FFF78EFF0746E06840442F
S1132E20F968B742EFD1A5EB0808424601F0BAFBB6
S1132E303869B0EB0800386104D13846FFF77BFFEE
S1132E40074602E0F8684044F860276025612046A0
S1132E50BDE8F2832DE9F04704460F0055D0D4F8BD
S1132E6000804546AA46012F01DB384600E078423F
S1132E706E69864249D3002D47D0D5F81090012FB2
S1132E801FDB07E0286820602846FFF754FF05464B
S1132E9028698144002D01D04F45F3DA002D2CD050
S1132EA0A7EB09002969EA6889184018E860A9EBCA
S1132EB00700286198F8190068761EE02D682869D3
S1132EC08144002D02D0B8198145F7DB002D14D0C0
S1132ED02869F119A1EB09010818286102E0FFF73C
S1132EE02AFF286028680028F9D12869002803D11E
S1132EF02846FFF720FF82465546002D04D03800AF
S1132F0000D54042301A68612560BDE8F0872DE99C
S1132F10F04782B005460E46140008D02868009099
S1132F2040693119884202D30098002801D1002059
S1132F3096E0002E07D1214600A8FFF78BFF0098EA
S1132F40286000988CE007460146D1F8108009E01B
S1132F5009680091096988440099002902D046450E
S1132F6000DB08460099002901D04645F0DA0969DA
S1132F70A8EB0102B2420AD100997A694A6121465A
S1132F80FFF768FF7869001B7861286868E0A8EBA0
S1132F9006094C4548DA7869001B7861A9EB040AF4
S1132FA0009880680068012813D1C8F100000099D6
S1132FB00969009AD2688918401852463118611874
S1132FC0301801F0EFFA00980069001B00990861BD
S1132FD028E01A460098017E5046FFF763FD07007B
S1132FE007D12868009040692018009948610020A2
S1132FF036E05246C8F1000000990969009BDB687D
S1133000C918401830182118F86801F0CBFA009854
S1133010006838600098076000980069A0EB090018
S11330200099086128681BE0A14507D1081B009995
S113303008617869001B7861286811E0A1EB090038
S1133040009908610098006879694161A4EB08005F
S113305031180098FFF7FEFE7869001B7861286834
S1133060BDE8F687002801D10846704700290FD033
S1133070024600E018460368002BFBD14B7E03F0A8
S1133080FE034B7601605069496908185061104687
S113309070470268002A02D10160704702465068F6
S11330A00028FBD15160704770B5040014D0256826
S11330B0002D11D08D4206D16E682846FFF74FFED1
S11330C0266070BD05466868884201D0002DF9D19C
S11330D04668FFF744FE6E6070BD80B5072201F0BC
S11330E07BFD14490860002801D0002002BD4FF088
S11330F0FF3002BD01460F48006801F090BD014653
S11331000C48006801F0C5BD0A48006801F00EBE15
S113311001460848006801F082BD01460548006880
S113312001F0B7BD0348006801F0EABD014800683A
S113313001F072BDBC5DFF1F3FE032F8023B10FAA4
S113314083F032F8023B10FA83F032F8023B10FAB3
S113315083F032F8023B10FA83F032F8023B10FAA3
S113316083F032F8023B10FA83F032F8023B10FA93
S113317083F032F8023B10FA83F032F8023B10FA83
S113318083F032F8023B10FA83F032F8023B10FA73
S113319083F032F8023B10FA83F032F8023B10FA63
S11331A083F032F8023B10FA83F032F8023B10FA53
S11331B083F032F8023B10FA83F02039BDD5203178
S11331C00FE032F8023B10FA83F032F8023B10FAB7
S11331D083F032F8023B10FA83F032F8023B10FA23
S11331E083F00839EDD5083103E032F8023B10FAD8
S11331F083F0891EF9D5891C02D0117810FA81F068
S113320070472DE9F04104460D460026E768D4F8DE
S11332101080454502D2A84600E0A846002D21D0E2
S1133220A5EB08053A4641463046FFF785FF0646BA
S11332302468E7685FEAC8700DD5002D09D0387896
S113324001F06CF97F1C16FA80F66D1E4FF0FF300A
S113325002E0002000E0002021698D42DDD301EB73
S11332600008DBE73046BDE8F08180B5FFF7C9FF11
S1133270010C11FA80F000EB1040C04380B202BD93
S11332802DE9F0410F4615469846069CA4B2214606
S1133290FFF7B7FF0646404601F040F9390C11FA32
S11332A087F101EB154111FA85F111FA80F52046F9
S11332B001F034F915FA80F08019010C11FA80F04C
S11332C000EB1040C04380B2BDE8F08180B500231C
S11332D00FF2E512194640F20110FFF764FB0020DB
S11332E002BDA4E118B4DA49096800E009680029BC
S11332F008D00A6A02EA00030C6922409342F5D11D
S1133300084602E011BC01F00DBE12BC70472DE965
S1133310F84F82B004468A461646DDF83090DDF850
S11333203CB00E9F109D002C0CD13046FFF7DAFF05
S1133330040007D13846FFF712FD2846FFF70FFDBA
S113334010209EE0BAF1000F01D1D4F810A07869E2
S11333501430B0F5803F07D33846FFF700FD284608
S1133360FFF7FDFC08208CE0012211461420FFF732
S113337099FB0090002807D13846FFF7F0FC284657
S1133380FFF7EDFC03207CE0D0F80C8098F80000F7
S113339000F00F0040F0400088F80000AD490888B4
S11333A0421C0A8001F0BAF8A8F8040088F80190D9
S11333B0786900F1140998F8000000F0F00040F07A
S11333C0050088F800000020A8F80600BBF1000FF3
S11333D002D04020A8F806009DF8340088F80800C0
S11333E09DF8080088F80900C8F80CA0C8F8106017
S11333F0002D1BD000234FF0FF3219462846FFF75B
S11334008FFB050012D0394600F0BBF9074698F847
S11334100000696910EB910098F8001060F3030153
S113342088F800106869800810FA89F9484680B263
S113343001F074F8A8F8020039460098FFF712FE6C
S11334400746B8F8020001F069F8616B814204D2C2
S11334503846FFF784FC082013E00020A8F80A008F
S113346098F8000000F00F0081000098FFF7FDFEBF
S1133470A8F80A00119B3A4631462046A46CA0479E
S11334800020BDE8FE8F10B50C46002813D0002C98
S113349011D022460146704800F05AFA002804D0A0
S11334A02046BDE81040FFF75ABC40F20110BDE8C9
S11334B01040FFF7D0BA10BD2DE9F04184B0FFF7FA
S11334C0AEFA02E00198FFF74AFC02A9624800F054
S11334D068FA0190002800F0A680002141600A46A5
S11334E014210198FFF74EFC0028EBD00190C4682A
S11334F0608801F013F8019949698142E2D31429E3
S1133500E0D3207801090429DCD100F00F00810008
S11335101429D7D30198FFF7A8FE0028D2D1206937
S113352002990969884205D00299103100F055FAD0
S11335300028C7D0608800F0F1FF019949698842EA
S113354008D2608800F0EAFF01994969411A01A88C
S1133550FFF780FC01A9029800F080F80028B4D19C
S1133560E0884FF6BF710842ACD101984069B0F5CC
S1133570803FA7D20023207800F00F00800000F1E4
S1133580080219460198FFF7CBFA0546002637468C
S11335903346207800F00F008000A0F114021421BB
S11335A00198FFF7BDFA8046207800F00F008100F3
S11335B001A8FFF74FFC627A012A08D1CDF80080F8
S11335C0019B2269E168029801F01CFD1EE031466E
S11335D0022001F0C6FA8446BCF1000F0ED0CDF8EB
S11335E00080019B2269E1680298DCF82040A04732
S11335F010F1010F0AD10326374607E003260227FC
S11336004046FFF7ACFB0198FFF7A9FB002E06D05C
S11336102B463A463146029801F008FE55E7284603
S1133620FFF79DFB51E7FFF7FFF9BDE8FF8180B588
S1133630FFF7F5F901E0FFF737FD074801680029B6
S1133640F9D100214160BDE80140FFF7EDB9000068
S1133650C05DFF1F345FFF1FA85DFF1F2DE9F84306
S113366005460F463868C668002800F0888031781F
S113367001F00F01890042698A42C0F08080152957
S11336807DD30022FFF77EFB040078D03C6006F176
S11336901407307800F00F008000A0F1140850E007
S11336A097F80190B9F1020F01DBC8450ADA781CDA
S11336B0821B2346D2B20C21284601F0B7FD01201B
S11336C0BDE8F283442839D14A46052A02DA781C37
S11336D0821BEEE7F97801F00F00030004D0012B00
S11336E010D0032B38D00AE0BB781B1D9A4219D2A4
S11336F0103101F0F0010843F870000912D1F81CF0
S1133700821BD6E7BB7808339A4206D2103101F007
S1133710F0010843F8700009F1D028697860B8789E
S1133720001DB870FFF7C6F8012000F0FCFEB97860
S1133730C91941F8010CB878001DB870A8EB090844
S11337404F44B8F1010F1ADB3878002817D001284C
S1133750A6D14FF00109F1E7BB7808339A4206D2AB
S1133760103101F0F0010843F8700009C7D07868FF
S113377029698842E2D1B878001DB870D2E70020E8
S11337809EE710B50C4600280FD0002C0DD04169DF
S1133790626951181431B1F5803F02D3FFF7DFFAA3
S11337A003E02146FFF75EFC0446204610BD70B5D9
S11337B00446084616460025002830D0002E2ED098
S11337C0292E08D22B460322F11C21F00301FFF716
S11337D066FA050005D14FF0FF3070BD0021315469
S11337E0761CE86816F0030FF8D1696902E001223B
S11337F0891A1018012912DB0278002A0FD0012A35
S1133800F5D04278022A04DB914202DB8378042B50
S1133810EEDA2846FFF7A3FA4FF0FF3070BD206EB2
S1133820002803D0FFF79BFA00202066002D00D06B
S11338302566002070BD70B504461D46002922D1BE
S1133840002D20D0049E002E1DD0012A04D0032A6E
S113385009D0042A0FD014E032462946FFF7A7FF07
S113386010F1010F0FD0042E0DD104F1640029686A
S11338704170002070BD042E05D1286884F86400CE
S1133880F7E7092000E0062004F16401886100F0F4
S113389084FE4FF0FF3070BD70B500294FD1002B6E
S11338A04DD0049D002D4AD02968002947D0012A13
S11338B006D0032A31D0042A37D0052A13D03CE09D
S11338C000F13806B46A002C24D06269914236D3E0
S11338D04FF0FF3200212046FFF7F2F9B06A406949
S11338E02860002070BD826B002A13D0147E022C45
S11338F023D1D668B468002C0CD0626991421ED3DF
S11339004FF0FF3200212046FFF7DAF9B068406932
S11339102860E6E700202860E3E704290FD3643039
S11339204078186004202860DBE7042907D390F866
S11339306400186004202860D3E7092100E0062110
S113394064308161084600F028FE4FF0FF3070BDFE
S113395070B504460E461546FFF761F8686961685C
S11339600818B0F5B43F06D8002202210420FFF75E
S113397099F8002804D1FFF757F84FF0FF3070BDD5
S1133980C66061686A69511861602946FFF76AFB7D
S1133990054629462046FFF77CFBFFF745F8002043
S11339A070BD70B504462568002D13D02E68E868F4
S11339B00860FFF734F8002E03D060687169401A7C
S11339C060600020286029462046FFF76DFBFFF762
S11339D02BF800E00026304670BD10F1010F0AD02C
S11339E0002808D04A69904205D08A69904202D0E2
S11339F0C968884201D1012070470020704780B512
S1133A00FFF770FC002802D14FF6FF7000E0406B16
S1133A103C388008800002BD28220021DFF8180805
S1133A2000F075BED0F88020002A03D01146002291
S1133A30C0F88020C167704738B504460D46FEF7CC
S1133A40EEFF20682860002800D0456000206860F0
S1133A502560BDE83140FEF7E7BF38B504460D46A2
S1133A60FEF7DDFF68682968002801D1216000E0C5
S1133A7001602868002801D069684160BDE83140D0
S1133A80FEF7D2BF10B54FF0FF34FEF7C8FF002099
S1133A90DFF8A41700E0401C0A2807DA51F82020B8
S1133AA0002AF8D1224641F820200446FEF7BCFF44
S1133AB0204610BDDFF8802742F820108860704748
S1133AC0DFF87417002241F82020704700210028F5
S1133AD008D410F1010F05D00A2803DADFF85817CB
S1133AE051F820100846704738B504460D46FEF7D5
S1133AF096FF29462046FFF7B0FF05F1300000F09D
S1133B002DFC05F1400000F029FC286EFFF727F991
S1133B102846FFF7FDFABDE83140FEF785BF70B4D3
S1133B20039CA4B2049D00E0006800281BD0B0F8F8
S1133B305C609642F8D1002901D1002D02D1866D36
S1133B408E42F1D1002B01D1002D02D1066D9E428F
S1133B50EAD1002C01D1002D03D1B0F85460A64263
S1133B60E2D1012000E0002070BC7047F0B40024D2
S1133B700326049DADB206E0002901D1012711E01E
S1133B808C450FD00068002824D0B0F85C709742B0
S1133B90F8D10027D0F858C0BCF1000FECD10029AF
S1133BA000D00127D0F850C0BCF1000F0AD0002B80
S1133BB001D17F1C09E09C45E4D1B0F854C0AC4568
S1133BC003D0DFE7002B00D07F1CB742DADA0446CB
S1133BD03E00D7D12046F0BC70477CB504460D4664
S1133BE0B4F85C60FEF71BFF761CB6B2A6F2014087
S1133BF040F68871884201D340F20146304600F015
S1133C008DFC01210191002100910B4602462946B9
S1133C102046FFF784FF0028E6D1FEF705FF304673
S1133C20BDE8764000F07ABC38B505468C20FFF735
S1133C3074FA040019D08C22294600F0B3FC002049
S1133C40206060604FF0FF30A0600020207360614E
S1133C50E062A06120622063A0632064A064206607
S1133C60E067C4F88000204632BD002032BDF8B5BC
S1133C7005460E461746DFF8C4050068002801D142
S1133C80192512E0FFF7FEFE044614F1010F01D1DD
S1133C9002250AE03A463146284600F062FF050054
S1133CA009D10A252046FFF70BFF284600F075FCD2
S1133CB04FF0FF30F2BD8C20FFF72FFA060001D140
S1133CC00325EFE78C22002100F021FD3146204638
S1133CD0FFF7F0FE356100203073314605F1140022
S1133CE0FFF7AAFEA96A08000DD03046884710F1F4
S1133CF0010F08D1314630691430FFF7F5FE00F0AA
S1133D0049FC0546CEE72046F2BD2DE9FC410C46B0
S1133D10154600263746DFF824150968002901D125
S1133D20192419E0FFF7D2FE8046B8F1000F57D0EE
S1133D30B8F85C00002851D1D8F8580000284DD1BB
S1133D40002C36D0102D49D1607802280BD00C24D9
S1133D5021464046FFF766FE204600F01EFC4FF069
S1133D60FF30BDE8F68166686788002E0AD006F049
S1133D70F000E02806D0304601F04BF8002801D1CD
S1133D800F24E5E706F0F000E02810D0002F0ED055
S1133D9000200190009003463A463146D8F81000BE
S1133DA04069FFF7BCFE002801D00E24D0E7C8F814
S1133DB05860002F06D13146D8F810004069FFF74B
S1133DC00CFF0746A8F85C7008F1300000F0C6FA52
S1133DD008F1400000F0C2FA0020C2E70624B7E769
S1133DE00124B9E738B504460025DFF8500400681B
S1133DF0002801D1192012E02046FFF767FE0028B1
S1133E000CD00169C96A0A0001D088470546002D13
S1133E1002D12046FFF754FE284632BD012000F0AF
S1133E20BCFB4FF0FF3032BD10B50C46DFF80C146C
S1133E300968002901D119240CE0FFF747FE002886
S1133E4024D0017B012901D0022909D11324214660
S1133E50FFF7E8FD204600F0A0FB4FF0FF3010BD57
S1133E60B0F85C10002901D10524F0E7012C01DA37
S1133E700624ECE70169002906D0CA6C110003D0BE
S1133E800121BDE8104010470B24E0E70124E1E7DD
S1133E902DE9F0410C461546DFF8A0130968002906
S1133EA001D1192418E0FFF711FE060051D0306942
S1133EB000284CD0406B002849D0307B032806D121
S1133EC0002C10D0002D0ED0286810280BD2062408
S1133ED021463046FFF7A6FD204600F05EFB4FF07A
S1133EE0FF30BDE8F081FFF7CDFD074617F1010F64
S1133EF02BD0FEF794FD30463169496B88478046E4
S1133F00B8F1000F06D13846FFF7DAFDFEF78CFD55
S1133F100424DDE741463846FFF7CCFD41463069CD
S1133F201430FFF789FDFEF77FFD002C0BD0002D28
S1133F3009D0D8F850006060B8F8540060800220BE
S1133F406070102028603846CBE70224C0E70B24B9
S1133F50BEE70124C0E7F0B583B00C4615461E4603
S1133F60DFF8D8120968002901D119240AE0FFF703
S1133F70ADFD002820D0016D002909D1142421466B
S1133F80FFF750FD204600F008FB4FF0FF30FEBD68
S1133F90002C0FD0002D0DD40169CF6B390007D050
S1133FA000210191009133462A462146B847FEBDBF
S1133FB00B24E4E70624E2E70124E3E7F0B583B049
S1133FC00C4615461E46099FDFF870120968002941
S1133FD001D1192413E0FFF779FD00282AD0002C21
S1133FE026D0002D24D4089900291DD0102F1FD1CC
S1133FF04A78022A09D00C242146FFF713FD2046F3
S113400000F0CBFA4FF0FF30FEBD4A684988002A21
S11340100AD00369DF6B3B0008D00191009233465C
S11340202A462146B847FEBD0724E5E70B24E3E70B
S11340300624E1E70124E2E7F0B583B00C46154617
S11340401E46DFF8F8110968002901D119240FE090
S1134050FFF73CFD002821D0002C1DD0002D1BD4DF
S1134060B0F85C10002909D105242146FFF7DAFCD9
S1134070204600F092FA4FF0FF30FEBD01698F6BCD
S1134080390007D000210191009133462A46214688
S1134090B847FEBD0B24E8E70624E6E70124E7E77A
S11340A02DE9FF410C4615461E46DFF890110968BC
S11340B0002901D119240FE0FFF708FD00284FD093
S11340C0002C4BD0002D49D4B0F85C1000290BD142
S11340D005242146FFF7A6FC204600F05EFA4FF0C7
S11340E0FF3004B0BDE8F0810A9FDDF82C80002F7A
S11340F006D0B8F1000F03D0D8F8001010292DD342
S11341000169D1F838C06146002925D0002F04D0B8
S1134110B8F1000F01D002A900E00021002F04D063
S1134120B8F1000F01D003AA00E00022019100922F
S113413033462A462146E04710F1010FD1D0002F23
S1134140CFD0B8F1000FCCD003997960BDF8081036
S1134150798002217970C4E70B24BAE70624B8E712
S11341600124B9E7F8B50D4614461E460027334925
S11341700968002901D1192454E0FFF7A7FC00289D
S113418058D0002E54D00699002951D04FF6FF7212
S113419095420DD00269002A4AD0576C3A0047D0A4
S11341A00091334622462946B84707463846F2BDB1
S11341B02246921E1CD0921E1AD0121F07D0083A13
S11341C016D040F6F173D21A012A1CD926E004292C
S11341D02ED1718801EB81025100C0F8881031881A
S11341E000290AD1D0F88410A143C0F88410DDE777
S11341F004291DD331680029F4D0D0F88410214358
S1134200C0F88410D2E7042912D3316841F20102C4
S1134210944201D14164C9E74163C7E709242146B7
S1134220FFF700FC204600F0B8F94FF0FF30F2BD74
S11342300624F4E70124F5E7705EFF1F6C5EFF1FA0
S113424011B583B00C469DF80F0001909DF80E0047
S113425000909DF80D309DF80C200FF22C31204673
S113426001F0BCFA204604B010BDF0B585B00C4690
S113427000AA00210A230578302D01D10823401C0F
S11342800578782D01D0582D06D11023401C03E069
S113429003FB01513039401C0678350019D0A5F1D3
S11342A030070A2FF4D3102B13D1A5F16107062F81
S11342B004D3A5F1410CBCF1060F0AD2062F01D29A
S11342C0612600E041260A35AD1B05EB0111401CB7
S11342D0E2E733462E2B08D142F8041B401C04A904
S11342E08A42C6D34FF0FF3036E0002E01D0202B97
S11342F0F8D142F8041B00A8101A8010C0B201289B
S113430006D0EFD303280CD004D3042813D0E9E754
S113431000991CE0009801990902090A41EA006128
S113432015E000A800990279120442EA016180684C
S113433080B201430BE000A800990279120442EA1A
S11343400161007A41EA00209DF80C1001430846FF
S113435000F0E9F82060002005B0F0BD70B5044617
S1134360FEF75DFB002C13D0A568002D10D00BE0E8
S1134370287E022803D1E8688068FEF7F0FC6E68A6
S11343802846FEF7ECFC3500F2D10020A060206046
S1134390BDE87040FEF748BB38B504460D46FEF74D
S11343A03EFB6068696922685118884204D2FEF7AE
S11343B03BFB4FF0FF3032BD2946A068FEF752FEAA
S11343C0A0602068696908182060FEF72DFB0020B2
S11343D032BD2DE9F04104460D4616461F46DDF870
S11343E01880FEF71CFB60686969226851188842CE
S11343F006D3002202210C20FEF754FB002804D12E
S1134400FEF712FB4FF0FF3014E0C1680E608F809E
S1134410C1F8088021686A69511821602946FEF7AD
S113442021FE0546294604F10800FEF732FEFEF798
S1134430FBFA0020BDE8F08170B5044615461E461F
S1134440A068002817D04269AA4200D215460B463C
S11344502A460021FEF734FC002E0DD0FEF7DFFAC9
S1134460294604F10800FEF7F5FC2068401B206093
S1134470FEF7DAFA00E00025284670BD2DE9F04782
S1134480044615461E46089FDDF82480D4F808909B
S1134490B9F1000F3ED099F8180002283AD1D9F8A2
S11344A000A0BAF1000F0BD0DAF81400A84200D231
S11344B005460B462A4600215046FEF701FC00E063
S11344C00025D9F80C0000683060D9F80C00808809
S11344D03880D9F814000C38854201D24FF0FF35EA
S11344E0B8F1000F17D0FEF79AFABAF1000F04D012
S11344F02068DAF81410401A2060D9F80C0080689B
S1134500FEF72DFC494604F10800FEF7CDFDFEF749
S11345108BFA00E000252846BDE8F087010A41EA4D
S1134520002080B2704700F47F41090241EA006133
S1134530020A02F47F42114341EA1060704780B5D9
S1134540FEF7A9FA6420FEF7A3F900F0ABFA10F124
S1134550010F08D0FFF760FA00F002FC10F1010F20
S113456001D0002002BD00F003F84FF0FF3002BD7F
S113457080B500F026FC00F0B5FAFEF78EF9BDE830
S11345800140FEF7D3BD000025642E25642E25646A
S11345902E2564000248006870470149086070478E
S11345A0C04AFF1F30B40B461C460146042AC0F023
S11345B0A2801D46ED0706D514F8010B01F8010B86
S11345C023460846521E1946890704D533F8021BB0
S11345D020F8021B921E910940E053F8044B40F866
S11345E0044B53F8044B40F8044B53F8044B40F885
S11345F0044B53F8044B40F8044B53F8044B40F875
S1134600044B53F8044B40F8044B53F8044B40F864
S1134610044B53F8044B40F8044B53F8044B40F854
S1134620044B53F8044B40F8044B53F8044B40F844
S1134630044B53F8044B40F8044B53F8044B40F834
S1134640044B53F8044B40F8044B53F8044B40F824
S1134650044B53F8044B40F8044B491EBDD1910858
S113466001F00F01491E0E2945D8DFE801F0403C56
S11346703834302C2824201C1814100C080053F84B
S1134680041B40F8041B53F8041B40F8041B53F8A4
S1134690041B40F8041B53F8041B40F8041B53F894
S11346A0041B40F8041B53F8041B40F8041B53F884
S11346B0041B40F8041B53F8041B40F8041B53F874
S11346C0041B40F8041B53F8041B40F8041B53F864
S11346D0041B40F8041B53F8041B40F8041B53F854
S11346E0041B40F8041B53F8041B40F8041B53F844
S11346F0041B40F8041B910703D533F8021B20F870
S1134700021BD10701D51978017030BC70470346EC
S1134710521C01E003F8011B521EFBD1704710B478
S1134720521C521E07D010F8013B11F8014BA34252
S1134730F7D0012000E0002010BC704701E0401CCD
S1134740491C02780B78002B01D09A42F7D0D01A7A
S113475070470021002802D108467047491C10F810
S1134760012B002AFAD10846704710B403460C46C0
S1134770002811D000290FD0002A04D10CE014F82D
S1134780011B03F8011B2178002903D011464A1E9E
S11347900029F4D10021197010BC7047C9B210F877
S11347A0012B01E010F8012B002A03D08A42F9D131
S11347B0401E7047002901D000207047401E7047FA
S11347C070B4521C521E0BD010F8013B1C4611F859
S11347D0015B2E46AB4201D0A01B02E0002CF1D1BC
S11347E0002070BC7047202801D0092801D1012085
S11347F0704700207047A0F130010A2906D3A0F1C8
S113480041011A2902D361381A2801D201207047C4
S11348100020704730380A2801D201207047002058
S1134820704741381A2801D2012070470020704790
S11348302DE9F84F04460D4616460027B846B946FA
S1134840002C05D0002E03D4012E01D0252E03DB2D
S1134850002D55D02C6053E0A24601E00AF1010A74
S11348609AF80000FFF7BFFF0028F7D19AF800007C
S11348702D280FD0302811D19AF80100782801D0C2
S113488058280BD1002E01D0102E07D110260AF182
S1134890020A03E04FF001090AF1010A002E05D1D2
S11348A00A2603E00BEB00070AF1010A9AF800B0AC
S11348B0BBF1000F1AD05846FFF79DFF002813D014
S11348C05846FFF7A7FF002802D0ABF1300B09E0F0
S11348D05846FFF7A6FF002802D0ABF1370B01E0E2
S11348E0ABF1570BB3450DDB4FF00108002D01D0A0
S11348F0C5F800A0B8F1000F0CD0002D00D02C603A
S1134900002008E006FB07F0B9F1000FCAD0A0EBC5
S11349100B07C9E73846BDE8F28FA0F141011A2917
S113492001D22030C0B2704770B504460D4614F869
S1134930010BFFF7F2FF064615F8010BFFF7EDFF39
S1134940864202DA4FF0FF3070BDB04201DA012036
S113495070BD002EEBD1002070BD0268531C0360B3
S1134960117070471748C16841F00101C1600068C7
S1134970FDF7A3BF10B504460323134A1349572078
S1134980FEF711F8124908601248016841F4000169
S113499001601148016821F00201016000F04DFF3F
S11349A0604308490860886840F00300886010BDCF
S11349B00A480168890889000160054801680320E4
S11349C0FEF70BB830710340C528000065490000AC
S11349D0B85DFF1F3C800440007003403871034001
S11349E070B40022294B03EB8003FF2825D8284C00
S11349F01D68A54201D02A461C601038031100EB43
S1134A00D3635B111C46032C17D20125A0EB43137F
S1134A1005FA03F31F4D55F824601E4345F824603E
S1134A201D4D55F82460334345F82430C1F1070186
S1134A3001F007010901194BC154104670BC7047BD
S1134A40124A02EB8002FF2800D9704730B40029D3
S1134A5019D01038031100EBD3635B111C46032CEF
S1134A6010D20125A0EB431005FA00F00C4B53F8CB
S1134A702450054343F82450064B53F8245028434C
S1134A8043F82400116030BC704700000000FF1F91
S1134A90F1D1000080E200E000E100E000E400E089
S1134AA080E100E080B5FDF7BAFF484800210160CD
S1134AB0474800F027F810F1010F0ED0454800F0E8
S1134AC021F810F1010F08D0FEF700FC10F1010FDE
S1134AD003D0FDF7A9FF002002BDFDF7A5FF4FF0AD
S1134AE0FF3002BD80B5FDF79AFF01E000F020F829
S1134AF0364800680028F9D1FEF7F3FBBDE8014011
S1134B00FDF792BF38B50446304D286820602C600C
S1134B1000206061A069010008D0804710F1010FF6
S1134B2004D1206828604FF0FF3032BD002032BD30
S1134B3010B50446E069010000D0804723480168AD
S1134B40A14201D121680160006800E00846002804
S1134B5004D00168A142F9D12168016000202060DD
S1134B6010BD10B4194B1B6800E01B68002B18D053
S1134B705C688442F9D19C688C420BD1002A01D133
S1134B80012405E0DC68944201D1012400E0002402
S1134B90002C04D10029E8D1DC689442E5D1184600
S1134BA000E0002010BC704710B50848046804E019
S1134BB0206D010000D080472468002CF8D1FEF756
S1134BC036FDBDE8104000F012B90000F85DFF1F8B
S1134BD0BC08FF1F600BFF1F30B40023072A00DA54
S1134BE00722002815D0144604F108058D4210D27E
S1134BF0231809334FF0FF352C1B1C400346521C6D
S1134C001A71091B4018D2B2B0FBF2F02060646044
S1134C101C60184630BC7047002101607047F8B52D
S1134C2004460D0034D0FDF7FAFE2079281A2168D5
S1134C30064600E019464B681D460A46B24201D2B8
S1134C40AE4205D3AA42F5D3B24201D3AE42F1D269
S1134C500568277907FB05669E4206D11B685B1928
S1134C6003604B685B68436000E043600B68257930
S1134C7005FB0322824205D10268D2180A6040680B
S1134C80486000E048602160BDE8F140FDF7CCBE1B
S1134C90F1BDF8B505460E460024FDF7C0FE28799F
S1134CA08119491EB1FBF0F0401C29680A464B6883
S1134CB001E019465B681E68864207D3002C03D0C6
S1134CC004D02768BE4201D20A461C4629688B429A
S1134CD0EFD1002C0FD02168814202D1606850606E
S1134CE005E0091A21602B7903FB014420602A6046
S1134CF02879241800E00024FDF796FE2046F2BD32
S1134D0038B50446FDF78BFE2068002801D1002049
S1134D1032BD056801E001684D1940682168884288
S1134D20F9D1FDF781FE2079684332BD38B50446D8
S1134D30FDF775FE2068002801D1002032BD05680A
S1134D4003E001688D4200D20D464068002802D07D
S1134D5021688842F5D1FDF767FE2079684332BDAA
S1134D6038B5FDF75CFEA24C002060602060A14DC8
S1134D70284600F05BF8284600F074F8246800E048
S1134D802468002C0CD0E16B0800F9D02046884739
S1134D900028F5D0204600F055F84FF0FF3032BD22
S1134DA09549284600F063F86FF07F41284600F0EB
S1134DB0A0F89249284600F0AEF8FDF735FE002031
S1134DC032BD38B5002000F00AF9894C256808E0A6
S1134DD0296C080001D028468847284600F032F89C
S1134DE02D68002DF4D100206060206031BD10B525
S1134DF0FDF715FE7E48046805E0216D080001D02A
S1134E00204688472468002CF7D1BDE81040FDF700
S1134E100BBE0021764A126800E01268002A03D013
S1134E2013699842F9D1114608467047002808D002
S1134E306F490A680260002A00D050600022426074
S1134E400860704700280CD041680268002902D12C
S1134E5067490A6000E00A600168002901D04068DF
S1134E6048607047002801D06149486070470028B5
S1134E703ED00161002180F83010026900F1100178
S1134E80130606D4FF220B69002B00D10A618A6045
S1134E9016E002F0C003802B07D14FF6FF720B69B6
S1134EA0002B00D10A618A600AE002F0E002C02A05
S1134EB006D16FF07F420B69002B00D10A618A6032
S1134EC002698B681A404A6002690B691A40CA6019
S1134ED002698B6862EA03024A6102690B6962EA49
S1134EE003028A6100F13001C9690A0000D0084751
S1134EF0704700280ED000F110021161002180F8E3
S1134F003010016913691940D1600069194660EADB
S1134F10010090617047002803D0C162002180F82D
S1134F2030107047324840687047002801D000694B
S1134F30704700207047002801D0006A70470020A5
S1134F407047002801D0C06A7047002070470B46A4
S1134F50002804D000F109011846FFF706BC704789
S1134F60002802D090F830007047002070470028D5
S1134F7002D0012180F83010704718B4002809D0FD
S1134F80002907D0002A05D0436D1C0002D001B0CF
S1134F9010BC18474FF0FF3012BC7047002808D0EF
S1134FA0002906D0002A04D0436D002B01D0836D64
S1134FB018474FF0FF307047002803D0C16D0A0036
S1134FC000D0084701207047002805D0002903D0ED
S1134FD0026E130000D010474FF0FF3070470849AD
S1134FE008607047064909680A0000D008477047FE
S1134FF0C05DFF1F4008FF1FC0A801C9C0A8010170
S1135000C85DFF1FF8B504460D46164606980028ED
S113501001D0FDF7A4FE002C00F0DD8000980028EC
S113502000F0D98040690428C0F0D5800022042112
S11350300098FDF7A7FE002800F0CD800090C76817
S11350404169FEF712F9002840F0C58004F110010F
S11350502846FEF7C2FC002840F0BD8005F0F000B1
S1135060E02800F0B8803878032869D0042800F0DC
S11350708E8008280AD00B2800F07A800C2800F0D3
S113508081800D281DD0112842D0A4E000984069E9
S11350900828C0F0A08004F110013046FEF79DFC02
S11350A0002840F0988006F0F000E02800F093809B
S11350B000203870009B2A463146204600F092F8C2
S11350C0F1BD009840691428C0F0858000221421A5
S11350D00098FDF757FE002800F07D800090C76817
S11350E00E203870FDF7E6FB642148433C49B0FBD1
S11350F0F1F13B4A02FB110040F00040FFF713FAC4
S1135100F860009B2A462169204600F06BF8F1BD47
S1135110009840690C285ED300220C210098FDF70A
S113512031FE002857D00090C76812203870206ADA
S1135130B860009B2A462169204600F053F8F1BD6F
S113514078780C2847D8DFE800F007090B0D110F19
S1135150070909070907090006241CE002241AE0CC
S1135160032418E0042416E0052414E0012412E0CA
S11351707878002802D0012802D02CE007240AE025
S1135180082408E07878022825DA092403E07878EE
S1135190002820D100240098406924281BD3252806
S11351A004D3C0F1240100A8FDF754FE00220098A6
S11351B04169FDF7E7FD00280DD00090C5686A7CC1
S11351C000210220FFF7CDFC020004D005F1080104
S11351D02046526A90470098FDF7C1FDF1BD0000DA
S11351E0005C26052DE9F04186B004460D461646BE
S11351F01F46D7F80C800020A8F8020079693846C9
S1135200FEF733F8A8F802000020059004900390FC
S11352100297402001900020009001233246294645
S11352202046FEF774F806B0BDE8F0812DE9F84396
S113523004460E461746184600287BD0C06805462B
S1135240E9884FF61F72114271D1697A012919D187
S1135250297801F00F0110F821000146082911D026
S113526000280FD00D290DD00E290BD00F2909D0FD
S1135270102907D0112905D0122903D0092901D0FA
S11352800A2954D104F11001E868FEF7A6FB0028AE
S11352904DD1E86800F0F001E02948D000F0F000BA
S11352A0F02844D004F110012869FEF796FB002889
S11352B03DD1287C00F0F000E02838D00098407EF2
S11352C00621084233D1002201210820FDF7EAFB20
S11352D08046B8F1000F2AD0D8F80C900020C9F805
S11352E0040030460C2805D13846FFF717F9A9F811
S11352F00400002789F8006089F80170287800F01C
S11353000F008000083000994969884203D2411A8D
S113531000A8FDF79FFD00994046FDF7A3FE00900D
S11353200346EA6829692046FFF75CFF02E000981B
S1135330FDF715FDBDE8F183024610685268104779
S11353400146086889680847C1680A0001D00068F6
S11353500847704730B40024254600F8015B002A52
S1135360096814D0002906D113E001F1300229465E
S113537000F8012B641C00290ED091FBF3F503FB0C
S113538015110029F1D5C94301F13102EFE70029D4
S11353900BD1302101700124204630BC704701F14B
S11353A03702294600F8012B641C0029F4D0B1FB14
S11353B0F3F503FB15110A29F1D201F13002F0E7EC
S11353C0F8B504460D4616461F4604E02146284615
S11353D0FFF7B2FF761CBE42F8DBF1BD2DE9F04FBA
S11353E08FB005461646002001900C4611E0B9F135
S11353F00A0F06D10198401C01900D212846FFF7A1
S11354009BFF0198401C019049462846FFF794FFF2
S1135410641C94F80090B9F1000F00F0C581B9F153
S1135420250FE4D10027384601E047F001070028A2
S11354301BD114F8011F20290BD023290FD02B29AD
S113544004D02D29F1D0302906D00BE047F0020713
S1135450EDE747F00407EAE747F00807E7E747F016
S11354601007E4E7641E0120E1E74FF0000840461E
S113547005E008EB880109EB4101A1F1300800289F
S113548008D114F8019F494630390929F1D9641E1D
S11354900120F4E714F8010F2E280AD10020002877
S11354A008D114F8011F30390929F8D9641E0120E4
S11354B0F5E7641E14F8010F4C2804D0682802D0C4
S11354C06C2800D0641E14F8019F4846582800F048
S11354D08180622800F0E380632800F02981642839
S11354E013D0692811D06E2800F059816F2800F07C
S11354F0CB80702800F0DE80732800F023817528AB
S113550000F0E380782865D07BE756F8040B04901C
S11355100A23012204A905A8FFF71CFF814605A858
S1135520484403900498002804D54FF02D0A09F14B
S113553001090FE0B80704D54FF02B0A09F101095E
S113554008E0780704D54FF0200A09F1010901E0C9
S11355504FF0000A4FF0000B380715D5BAF1000FD1
S113556006D00198401C019051462846FFF7E4FEFE
S11355704FF0010B01A8009043464A4629463020CB
S1135580FFF71EFFC14615E0F80713D401A80090E9
S113559043464A4629462020FFF712FFBAF1000F7E
S11355A006D00198401C019051462846FFF7C4FEDE
S11355B04FF0010BBBF1000F40F0AA80BAF1000FCD
S11355C000F0A6800198401C019051462846FFF740
S11355D0B3FE9DE056F8040B02901023002202A9AA
S11355E005A8FFF7B7FE814605A8484403904FF08D
S11355F0000B380718D5F8060CD50198801C0190CB
S113560030212846FFF798FE78212846FFF794FEBC
S11356104FF0010B01A8009043464A46294630202A
S1135620FFF7CEFEC1461CE0F8071AD4F80601D5F0
S113563009F1020901A8009043464A462946202060
S1135640FFF7BEFEF8060CD50198801C01903021AE
S11356502846FFF771FE78212846FFF76DFE4FF0CC
S1135660010BF80654D5BBF1000F51D10198801CF1
S1135670019030212846FFF75FFE78212846FFF786
S11356805BFE09F1020943E056F8040B029008237B
S1135690002202A905A8FFF75DFE81461FE056F827
S11356A0040B02900223002202A905A8FFF752FE70
S11356B0814614E056F8040B02901023002202A93C
S11356C005A8FFF747FE814609E056F8040B02904F
S11356D00A23002202A905A8FFF73CFE814605A87B
S11356E048440390380709D501A8009043464A4628
S11356F029463020FFF764FEC14609E0F80707D4C5
S113570001A8009043464A4629462020FFF758FE48
S113571003980078002836D00198401C0190039823
S1135720401E0390401C01782846FFF705FEEFE772
S113573056F8041BC9B20198401C01902846FFF793
S1135740FBFD65E656F804ABBAF1000F3FF460AE1A
S11357505046FEF7FEFF8146F80710D401A80090DA
S113576043464A4629462020FFF72AFE07E00198CF
S1135770401C01901AF8011B2846FFF7DDFD9AF83A
S113578000000028F3D1F8077FF542AE01A800908D
S113579043464A4629462020FFF712FE38E656F8CB
S11357A0040B0199016033E601980FB0BDE8F08F56
S11357B00EB400B501AA01460FF25800FFF70EFE21
S11357C05DF810FB4268002A07D002681170016876
S11357D0491C01604168491E416070470CB400B522
S11357E087B002460020002A0ED000924FF0FF300E
S11357F0019000A802900648039008AA02A8FFF7A7
S1135800EDFD009900220A7007B05DF80CFB000062
S1135810C557000000000000E9CC0000F9CC0000EE
S11358200000000009480A490160704780B500F093
S113583017F8002002BD00F011B8064806490968AF
S1135840C1F30361491CB0FBF1F070470CED00E0BB
S11358500400FA05007701004480044062B67047F2
S113586072B670472DE9F04FA1B0824602AE002017
S113587017461D46029170620DF144080AE017F8BC
S1135880011B0298D0470290002800F08B82706AB6
S1135890401C7062387808B9706A85E22528EED118
S11358A00020F06030617061B061F061306201E04D
S11358B040F0010017F8011F2029F9D023290DD049
S11358C02B2904D02D2906D030290AD00CE040F031
S11358D0020080B2EEE740F00400FAE740F008006E
S11358E0F7E740F01000F4E72A290DD129680A1DD2
S11358F02A600968F162002904D5494240F0040095
S1135900F16280B27F1C13E00021F1620BE0F16AC6
S11359106FF00043994205D001EB810302EB430190
S11359203039F1627F1C3A78A2F130010A29EED3B2
S113593039782E2903D04FF0FF31B1621EE017F8F9
S1135940011F2A2906D129680A1D2A607F1C0968BB
S1135950B16213E00021B1620BE0B16A6FF0004361
S1135960994205D001EB810302EB43013039B16266
S11359707F1C3A78A2F130010A29EED330860FF663
S1135980C030397800F0EAFD08B117F8010B8DF842
S11359903A009DF83A00682802BF397868296220E5
S11359A005D06C2804BF38786C2803D171208DF899
S11359B03A007F1C11A8B0603978B1F1250023D0DA
S11359C01C3871D0001F02286ED9133800F097805C
S11359D0093869D0801E00F02B81401E00F0D4806D
S11359E0401E022860D9001F00F0CE80401F30D036
S11359F0401E00F08480401E20D0C01E09D0801EAE
S1135A007DD0C01E7BD01BE1F068411CF1602521D4
S1135A1020E12868011D29600068B26A7060002ACC
S1135A2002D500F0A6FD07E0002100F0DBFD002810
S1135A301ABF7168401AB06A30610DE12868011D0F
S1135A40296000210068CDE9000111A87060782167
S1135A50EAE09DF83A00622818D0682806D06A283F
S1135A600BD06C2819D0712807D016E02868011DC6
S1135A7029600068716A0180EEE02A68101D2860C0
S1135A801268706AC117C2E90001E5E02868011DC7
S1135A9029600068716A0170DEE02868011D2960D0
S1135AA00068716A0160D7E02868C01D20F0070013
S1135AB0286000F108022A60D0E90023CDE9002320
S1135AC0002B04D5F068421CF2602D220DE0308ECC
S1135AD0820704D5F068421CF2602B2205E0C0075F
S1135AE005D5F068421CF260202200F80820F06816
S1135AF011AA8018706000A800F0E2F9ACE09DF8EB
S1135B003A006C2808BF2A6811D0712808BF2A6897
S1135B1002D02A686A280AD1D21D22F007022A601C
S1135B20144604F108022A60D4E9002303E0131D9B
S1135B302B6000231268CDE90023682808BF92B2C5
S1135B4007D0622808BFD2B203D0742818BF7A28BD
S1135B5002D10023CDE9002396F8300000075FD579
S1135B60DDE90023002B08BF002A59D041F02000B2
S1135B70782855D1F068302200F80820401C421CD7
S1135B80F26000F808104BE09DF83A0062280CD04F
S1135B90682810D06A281AD06C2823D0712816D00F
S1135BA074281FD07A280CD01CE02868021D2A60B3
S1135BB090F900201AE02868021D2A60B0F900203C
S1135BC014E02868021D2A60002302680FE0286898
S1135BD0C01D20F00700286000F108022A60D0E907
S1135BE0002304E02868021D2A600268D317CDE967
S1135BF00023002B04DAF068421CF2602D220DE031
S1135C00308E820704D5F068421CF2602B2205E036
S1135C10C00705D5F068421CF260202200F8082075
S1135C20F06811AA8018706000A800F0C0F813E0B2
S1135C30F068411CF16029680A1D2A60096809E0BE
S1135C40F068421CF260252200F8082021B1F068B7
S1135C50421CF26000F80810F06AF168401AB16959
S1135C60401A3169401AF169401A7169401A316A5F
S1135C70A0EB010996F830007F1C400710D42020C7
S1135C808DF84000002409E0012310AA00A9504621
S1135C9000F03EFC002840F08580641C4C45F3DB9A
S1135CA0F4680DF1440B0AE01BF8011B0298D0477D
S1135CB00290002876D0706A401C7062641E002C2A
S1135CC0F2D130208DF840004FF0000BB46909E0A8
S1135CD0012310AA00A9504600F01AFC002861D143
S1135CE00BF1010BA345F3DB3469D6F804B00AE0E9
S1135CF01BF8011B0298D0470290002852D0706A0A
S1135D00401C7062641E002CF2D130208DF84000DB
S1135D104FF0000BF46909E0012310AA00A95046D2
S1135D2000F0F6FB00283DD10BF1010BA345F3DB9A
S1135D3030697168746900EB010B09E01BF8011B01
S1135D400298D047029068B3706A401C7062641E67
S1135D50002CF3D130208DF840004FF0000B346A52
S1135D6008E0012310AA00A9504600F0D1FBC8B9ED
S1135D700BF1010BA345F4DB96F8300040077FF5E7
S1135D8089AD20208DF84000002400E0641C4C45BF
S1135D90BFF680AD012310AA00A9504600F0B8FB5D
S1135DA00028F3D04FF0FF3021B0BDE8F08F2DE98B
S1135DB0FA47064682B035690A466F2A08BF0827A3
S1135DC005D041F02000782814BF0A271027D6E90F
S1135DD000013C2480468946642A18BF692A05D1FB
S1135DE0002903DAD8F1000869EB4909B9F1000F79
S1135DF008BFB8F1000F0CD1306B50B9082F3BD15C
S1135E0096F83800000737D530203B2485F83B004E
S1135E1032E0CDE90089FB17404649463A4600F096
S1135E200DFCB846A8FB0023DDE90089A8EB0202BB
S1135E303032A4F1010AD2B254463A2A03DB9DF867
S1135E400830513B9A180AF8052080465FEA010998
S1135E5008BFB8F1000F03D0F06861198842D8D3A5
S1135E60082F09D196F83800000705D5605D302861
S1135E7002D0641E30206055C4F13C00B061611949
S1135E80F160316B884207DA081A30624FF6EF711D
S1135E90308F0840308710E000290ED596F838106E
S1135EA001F01401102908D1716B7269891A326AE0
S1135EB0891A081A0128A8BF306204B0BDE8F08727
S1135EC02DE9F24F04468EB0D4E90001CDE9020178
S1135ED004AE9DF8380040F02000009061280AD0FC
S1135EE0206B002848BF062004D404BF009867280C
S1135EF001D1012020636168C1F30A5040F2FF72AE
S1135F0090421CD1080304BF2068002809D1032053
S1135F10A0619DF8380061381A2836D30FF2346135
S1135F2008E00320A0619DF8380061381A2829D3BD
S1135F300FF21861E068032200F0F8FBB5E10128D4
S1135F4016DA204600F02DFC012811DB0027002082
S1135F500099612920D1E168302201F8012B4A1C03
S1135F60E2609DF83820612A0CBF782258220FE0A5
S1135F70626840F2FE3161F31E52471A62604FF0CC
S1135F80FF30E5E70FF2C051D4E70FF2C451D1E777
S1135F900A706169891C616110B9002500277BE1E1
S1135FA00098612840F09680206B00284CBF212582
S1135FB0451CDDE902012DB26E1CD4E900890022E2
S1135FC0002300F00FFC3ABF89F00040CDE90280C5
S1135FD0CDE902893F1F8DF810200DF1110801E071
S1135FE000F20708012E32DBDDE902010022002362
S1135FF000F010FC2BD21C2102A800F023FCDDE9E8
S1136000020100F0A5FCF61F8146012E09DB00F019
S1136010CBFC02460B46DDE9020100F0DDFCCDE9D4
S1136020020108F20700072105E009F00F0200F859
S1136030012D4FEA2919B9F1010F01DB491EF4D5ED
S1136040491E5CBF002200F8012DF9D5C8E70DF107
S11360501100A8EB00010DF11106A942B8BF0D46CD
S11360602DB228002FD4884206DA04A941184978B1
S11360700829A8BF0F2100DA002104AA821800E031
S11360806D1E12F80139401E8B42F9D00F2904D13C
S113609004A941184A78521C4A70002802D504AE5B
